:020000040000FA
:060000000A128A11EE2F26
:100C6A00700C83120313031C8813031888170800D7
:100C7A00700C83120313031C0813031808170800C7
:100C8A00700C83120313031C8812031888160800B9
:100C9A007008203E84008313000883120313860021
:100CAA00080083160317890183160313860183122A
:100CBA000313860108008316031388120813881386
:100CCA00831203138812081388130800831203136C
:100CDA00080C0139F200F3017208F0007308F10000
:100CEA00762E08008312031308080139F200F30173
:100CFA007208F0007308F100822E080083120313B1
:100D0A00080D080D0139F200F3017208F0007308AA
:100D1A00F1008F2E08003F3406345B344F346634BA
:100D2A006D347D3407347F346F3477347C3439340E
:100D3A005E34793471347E088A007F0882000A1290
:100D4A008A11A0260A128A118000840A04087D06E4
:100D5A0003190034FF0A0319FE0AA42EC22EFF301B
:100D6A00F0070318F10AFF30F107C730F200BD2E71
:100D7A00F20BBC2EC02EC12EC22E70087104031DA8
:100D8A00C72EC82EB42EC92E0800F601F701F801A5
:100D9A00F901AE2FAE2F0130F8000030F900D02F44
:100DAA000A128A1160260A128A110A128A11562612
:100DBA000A128A110230F8000030F900D02F0A1204
:100DCA008A1177260A128A1170037104031DEE2E06
:100DDA00EF2ED02F0A128A1183260A128A1170085E
:100DEA007104031DF92EFA2ED02F0330F8000030BB
:100DFA00F900D02FD02F0130F0000030F1000A1294
:100E0A008A1135260A128A110130F0000030F100E9
:100E1A000A128A113D260A128A110030F000F100E6
:100E2A000A128A1145260A128A110430F800003083
:100E3A00F900D02FB830F4000B30F5000630F80076
:100E4A000030F900D02F0130F0000030F1000A1212
:100E5A008A11B3260A128A11FF30F4070318F50A19
:100E6A00FF30F5077508803AFF0080307F02031DC6
:100E7A00402F013074020318432F442F492F0730A3
:100E8A00F8000030F900492F0A128A116B260A125B
:100E9A008A1170037104031D532F542FD02F093068
:100EAA00F8000030F900D02FD02F0130F6070318D0
:100EBA00F70A0030F7070830F8000030F900D02FA1
:100ECA000130F0000030F1000A128A1135260A12A8
:100EDA008A110030F000F1000A128A113D260A1226
:100EEA008A110130F0000030F1000A128A114526F9
:100EFA000A128A110A128A116B260A128A117003BF
:100F0A007104031D892F8A2FD02F0930F800003071
:100F1A00F900D02FD02F0030F000F1000A128A1108
:100F2A0035260A128A110030F000F1000A128A11DD
:100F3A003D260A128A110030F000F1000A128A11C5
:100F4A0045260A128A110230F8000030F900D02F23
:100F5A00D02F7908003A0319B32FD02F7808003A16
:100F6A000319D02E013A0319D52E033A0319E42E98
:100F7A00013A0319002F073A03191F2F023A0319DE
:100F8A00282F013A03195A2F0F3A0319652F013AEC
:100F9A000319902FD02F7708F1007608F0000A1273
:100FAA008A114D260A128A117708803AFF0080308A
:100FBA007F02031DE22F0A307602031CE52FE62F7B
:100FCA00AE2FF601F701AE2FAE2FAE2F0A128A11FD
:100FDA00002883133030FD000630FE009030FF00F9
:100FEA00203084000A128A11A4260A128A11830167
:060FFA000A128A11CA2E42
:04400E00D4E0FFFFFC
:00000001FF
